:020000040800F2
:10000000600C002045010008F90F0008FB0F0008F4
:10001000FF0F000803100008071000080000000090
:100020000000000000000000000000000B100008AD
:100030000D100008000000000F100008111000084B
:100040005F0100085F0100085F0100085F01000810
:100050005F0100085F0100085F0100085F01000800
:100060005F0100085F0100085F0100085F010008F0
:100070005F0100085F0100085F0100085F010008E0
:100080005F0100085F0100085F0100085F010008D0
:100090005F0100085F0100085F0100085F010008C0
:1000A0005F0100085F0100085F0100085F010008B0
:1000B0005F0100085F0100085F0100085F010008A0
:1000C0005F0100085F0100085F0100085F01000890
:1000D0005F010008131000085F0100088510000888
:1000E0005F0100085F0100085F0100085F01000870
:1000F0005F0100085F0100085F0100085F01000860
:100100005F0100085F0100085F0100085F0100084F
:100110005F0100085F0100085F0100085F0100083F
:100120005F0100085F0100085F0100085F0100082F
:10013000DFF80CD002F0C8FC004800472D0F000883
:10014000600C00200648804706480047FEE7FEE7AF
:10015000FEE7FEE7FEE7FEE7FEE7FEE7FEE7FEE777
:1001600047020008310100080CB500200190009002
:100170006C48006840F480306A49086000BF6948F4
:10018000006800F4003000900198401C0190009835
:1001900018B90198B0F5A06FF1D16248006800F479
:1001A000003010B10120009001E000200090009884
:1001B000012843D15C48006840F010005A490860AB
:1001C0000846006820F0030008600846006840F018
:1001D0000200086053484068524948600846406839
:1001E00048600846406840F48060486008464068BF
:1001F00020F47C1048600846406840F4E8104860ED
:100200000846006840F08070086000BF45480068FC
:1002100000F000700028F9D04248406820F0030048
:10022000404948600846406840F00200486000BF0E
:100230003C48406800F00C000828F9D10CBD10B50E
:10024000FFF792FF10BD10B53648006840F001007E
:1002500034490860084640683449084031494860DC
:1002600008460068324908402E4908600846006880
:1002700020F4802008600846406820F4FE004860B2
:100280004FF41F008860FFF7DAFF4FF00060294944
:10029000086010BD10B5002100200022214B5B68D2
:1002A00003F00C0121B1042906D0082928D107E068
:1002B000214B224C236027E01F4B204C236023E07E
:1002C000184B5B6803F47010164B5B6803F48032C4
:1002D000022303EB904022B9194B4343174C236090
:1002E0000DE0104B5B6803F4003323B1144B434320
:1002F000124C236003E0104B4343104C236003E097
:100300000D4B0E4C236000BF00BF064B5B68C3F370
:1003100003130C4CE15C094B1B68CB40074C23607A
:1003200010BD000000100240002002400000FFF855
:10033000FFFFF6FE08ED00E000127A00000000204A
:1003400000093D000400002031490143314A116099
:10035000704770B5002100230F22C47804B32D4CE0
:10036000246804F4E064C4F5E064210AC1F10403E4
:10037000CA40447804FA03F1847814402143090107
:10038000254C0678A155047804F01F050124AC40E3
:1003900005786D11AD0005F1E025C5F8004109E0D3
:1003A000047804F01F050124AC401C4D067876113A
:1003B00045F8264070BD1A4A0A400243154B1B1FE0
:1003C0001A60704739B1134A121D12680243114B6B
:1003D0001B1D1A6006E00F4A121D126882430D4B66
:1003E0001B1D1A607047042808D14FF0E0210969ED
:1003F00041F004014FF0E022116107E04FF0E021ED
:10040000096921F004014FF0E022116170470000FA
:100410000000FA050CED00E000E400E080E100E0FF
:1004200080FFFF1F10B50446CC48844208D101214B
:10043000042000F02DFB0021042000F029FB46E001
:10044000C748844208D10121082000F021FB002187
:10045000082000F01DFB3AE0C248844208D1012187
:10046000102000F015FB0021102000F011FB2EE001
:10047000BD48844208D10121202000F009FB002161
:10048000202000F005FB22E0B848844208D1012179
:10049000402000F0FDFA0021402000F0F9FA16E0BB
:1004A000B348844208D10121802000F0F1FA0021F4
:1004B000802000F0EDFA0AE0AE48844207D1012125
:1004C000801500F0E5FA0021A01500F0E1FA10BD5A
:1004D00010B50121084600F0DBFA0021012000F0F0
:1004E000D7FA10BD2DE9F041024600250026002074
:1004F00000230024002791F803C00CF00F0591F8A9
:1005000003C00CF0100CBCF1000F03D091F802C036
:100510004CEA050591F800C0BCF1000F31D0146819
:1005200000202BE04FF0010C0CFA00F3B1F800C0F2
:100530000CEA03069E4220D183004FF00F0C0CFA08
:1005400003F7BC4305FA03FC4CEA040491F803C02A
:10055000BCF1280F06D14FF0010C0CFA00FCC2F8D8
:1005600014C00AE091F803C0BCF1480F05D14FF068
:10057000010C0CFA00FCC2F810C0401C0828D1D3B2
:100580001460B1F800C0BCF1FF0F34DD54680020E6
:100590002EE000F1080C4FF0010808FA0CF3B1F856
:1005A00000C00CEA03069E4221D183004FF00F0CDD
:1005B0000CFA03F7BC4305FA03FC4CEA040491F877
:1005C00003C0BCF1280F05D100F1080C08FA0CF8A3
:1005D000C2F8148091F803C0BCF1480F07D100F1B4
:1005E000080C4FF0010808FA0CF8C2F81080401C03
:1005F0000828CED35460BDE8F0814FF6FF7101802A
:10060000022181700421C170704702460020936866
:100610000B400BB1012000E00020704701468868C4
:1006200080B2704702460020D3680B400BB1012016
:1006300000E0002070470146C86880B27047016141
:100640007047416170470AB1016100E04161704744
:10065000C16070474FF480320A43826181618261D8
:1006600082698269704702460020434B18684FF642
:100670008073184040EA021008433F4B18607047EF
:100680003E49C8617047F0B50A46002300240021A6
:10069000002500F00046B6F1004F02D1364EF16958
:1006A00001E0354E7168C0F3034583B200F4401693
:1006B000B6F5401F08D121F070612F4E766826F004
:1006C00070662D4F7E6012E000F48016B6F5801F34
:1006D00006D1032606FA05F4A14341F0706106E055
:1006E000460D360103FA06F6B14341F0706122B1BE
:1006F000460D360103FA06F6314300F00046B6F126
:10070000004F02D11C4EF16101E01B4E7160F0BD43
:1007100030B500228B071C0F0F2303FA04F2164B8F
:1007200008338C1053F824309343134C08348D1045
:1007300044F8253023468C1053F824308C07240FBE
:1007400000FA04F423430C4C08348D1044F825308F
:1007500030BD0A49DC3108607047000000080140E4
:10076000000C01400010014000140140001801403D
:10077000001C014000200140000001400000204218
:10078000DF48006840F00100DD4908600846406825
:10079000DC490840DA49486008460068DA49084000
:1007A000D74908600846006820F4802008600846A1
:1007B000406820F4FE0048604FF41F0088607047D6
:1007C000CF49096821F48031CD4A1160114609688A
:1007D00021F480211160B0F5803F03D0B0F5802F67
:1007E0000ED106E0C649096841F48031C44A11605F
:1007F00007E0C349096841F4A021C14A116000E043
:1008000000BF00BF704710B5014600220023002042
:100810004A11012A02D1BA4C236806E0022A02D109
:10082000B74C236A01E0B64C636A01F01F02012451
:1008300094401C400CB1012000E0002010BD38B5F0
:10084000002000900024002500BF3120FFF7DBFFCF
:1008500005460098401C00900098B0F5A06F01D0AC
:10086000002DF2D03120FFF7CEFF08B1012400E0C7
:100870000024204638BD01460020A14A106820F01F
:10088000F80040EAC10010607047A0490860704756
:10089000024600209A4B586820F47C1042EA01037B
:1008A0001843974B5860704798490866704701464F
:1008B0000020934A506820F00300084350607047BE
:1008C0008F48406800F00C007047014600208C4AB9
:1008D000506820F0F0000843506070470146002047
:1008E000874A506820F4E060084350607047014632
:1008F0000020834A506820F4605040EAC1005060F4
:10090000704729B17E4A527A02437D4B5A7204E005
:100910007B4A527A82437A4B5A7270477B49D8316C
:100920000860704701460020754A506820F4404036
:100930000843506070470021714A20321170704A9C
:1009400082F82010012802D004280AD104E00121F5
:100950006B4A2032117005E00521694A203211707E
:1009600000E000BF00BF70476949086070476449F4
:10097000096A0143624A1162704765494439086057
:10098000704730B500210022002400235C4D6D68C3
:1009900005F00C0121B1042905D0082923D105E077
:1009A0005C4D056022E05B4D05601FE0544D6D68B5
:1009B00005F47012524D6D6805F48034022505EB84
:1009C00092421CB9544D554305600BE04C4D6D6887
:1009D00005F400351DB1504D5543056002E04D4D05
:1009E0005543056002E04B4D056000BF00BF444D1C
:1009F0006D6805F0F0010909484D6B5C0568DD4044
:100A000045603F4D6D6805F4E061090A434D6B5C3C
:100A10004568DD4085603A4D6D6805F46051C90A4E
:100A20003E4D6B5C4568DD40C560354D6D6805F435
:100A30004041890B3A4D6B5CC568B5FBF3F5056128
:100A400030BD29B12E4A526902432D4B5A6104E050
:100A50002B4A526982432A4B5A61704729B1284A6E
:100A600092690243264B9A6104E0254A92698243C7
:100A7000234B9A61704729B1214AD2690243204B26
:100A8000DA6104E01E4AD26982431D4BDA61704785
:100A900029B11B4AD2680243194BDA6004E0184AB4
:100AA000D2688243164BDA60704729B1144A126942
:100AB0000243134B1A6104E0114A12698243104B3E
:100AC0001A61704712494039086070470F49C8647D
:100AD00070470B49C87170470948406A40F0807000
:100AE00007494862704701460020054A92680A405B
:100AF0000AB1012000E00020704701498872704768
:100B0000001002400000FFF8FFFFF6FE0000424226
:100B10008004424200127A0000093D0014000020C7
:100B20002400002010B50446FB48844209D101216D
:100B30008803FFF7ADFF00214FF48040FFF7A8FFC7
:100B400032E0F648844209D101214804FFF7ADFFA5
:100B500000214FF40030FFF7A8FF25E0F048844261
:100B600009D101218804FFF7A0FF00214FF4802064
:100B7000FFF79BFF18E0EB48844209D10121C8042C
:100B8000FFF793FF00214FF40020FFF78EFF0BE0EB
:100B9000E548844208D101210805FFF786FF0021BE
:100BA0004FF48010FFF781FF10BD2DE9F04786B0AC
:100BB00005460E460024A24600BFA1460027B08984
:100BC00000B100BF2F462C8A4CF6FF700440F0881D
:100BD00004432C82AC894EF6F3100440B08831896E
:100BE0000843718908430443AC81AC8A4FF6FF4047
:100BF0000440B0890443AC8201A8FFF7C2FEC64896
:100C0000874202D1DDF810A001E0DDF80CA0A88930
:100C100000F4004040B10AEBCA0000EB0A10316852
:100C20004900B0FBF1F807E00AEBCA0000EB0A103C
:100C300031688900B0FBF1F86420B8FBF0F00401E2
:100C40002009642101FB1089A88900F4004040B10B
:100C5000322000EBC900B0FBF1F000F007000443C4
:100C600008E0322000EB09106421B0FBF1F000F045
:100C70000F0004432C8106B0BDE8F0874FF41651F5
:100C8000016000218180C18001810C21418100210E
:100C90008181704710B502460020108A4FF2FF0391
:100CA00018400B884C8823438C882343CC882343EB
:100CB0001843108210BD0021018041808180C180D5
:100CC000704721B1828942F40052828104E0828916
:100CD0004DF6FF731A4082817047F0B50346002439
:100CE00000260025002040F66A17B94200D100BF57
:100CF0001846C1F3421401F01F06012707FA06F552
:100D0000012C01D10C3004E0022C01D1103000E0A4
:100D100014301AB107682F43076002E00768AF4339
:100D20000760F0BD1AB1838A0B43838202E0838A95
:100D30008B4383827047028A4FF6F0731A40028217
:100D4000028A0A430282704782894FF2FF731A4077
:100D5000828182890A438281704721B1828942F06F
:100D60000202828104E082894FF6FD731A4082817B
:100D70007047028A4FF6DF731A400282028A0A43E2
:100D80000282704721B1028A42F48042028204E06A
:100D9000028A4BF6FF731A4002827047C1F30802C1
:100DA0008280704701468888C0F3080070478189B7
:100DB00041F0010181817047028BD2B20283028B24
:100DC00042EA012202837047028B02F47F420283CF
:100DD000028B0A430283704721B1828A42F02002CB
:100DE000828204E0828A4FF6DF731A408282704763
:100DF00021B1828A42F01002828204E0828A4FF698
:100E0000EF731A408282704721B1828A42F0080251
:100E1000828204E0828A4FF6F7731A40828270471A
:100E200021B1828942F40042828103E08289C2F3C7
:100E30000E028281704721B1828A42F4006282826E
:100E400004E0828A4FF2FF731A4082827047828ADE
:100E50004FF6FB731A408282828A0A43828270476D
:100E600021B1828A42F00202828204E0828A4FF635
:100E7000FD731A408282704702460020B1F5007F60
:100E800000D100BF13880B400BB1012000E000200F
:100E9000704701F40072B2F5007F00D100BFCA4371
:100EA0000280704770B50246002400230025002010
:100EB00040F66A16B14200D100BFC1F3421501F0FD
:100EC0001F03012606FA03F3012D02D19689334050
:100ED00006E0022D02D1168A334001E0968A3340A3
:100EE0000C12012606FA04F41688344013B10CB132
:100EF000012000E0002070BD10B50022002340F664
:100F00006A14A14200D100BF0A1201249440A3B286
:100F1000DC43048010BD0000003801400044004064
:100F200000480040004C00400050004000F0C5F96F
:100F300000F0BCFA00F086FA00F074FB0CA001F09F
:100F4000D5FD154801F0D2FD144801F0CFFD00F0A9
:100F5000EDFF13A001F0CAFD104801F0C7FD20A06D
:100F600001F0C4FD01F0A9FC01E001F030F8FCE75C
:100F70000D0AD2B0BBF02057462D455350383236BB
:100F8000362057694669C4A3BFE9B2E2CAD4C0FD9E
:100F9000B3CC0D0A00000000FC2E0008A02E0008B3
:100FA0000D0AD4DACDF8C2E7B5F7CAD4D6FACAD654
:100FB000BBF2D5DFB4AEBFDAB5F7CAD4D6FACAD61B
:100FC0002020B7A2CBCDD2D4CFC2C3FCC1EEBFD8B4
:100FD000D6C6B0E5D4D8524742B5C6A3BA0D0A006A
:100FE0000D0AB9DBB2EC524742B5C6B5C4D7B4CC92
:100FF000ACB1E4BBAF0D0A00704700BFFEE700BF15
:10100000FEE700BFFEE700BFFEE77047704770478E
:10101000704710B540F225513C48FFF743FFD8B167
:101020003A48FFF7BFFEC4B23948B0F80004C0F335
:101030000E0040F2FF3188420EDA3549B1F8001453
:10104000C1F30E00411C324AB2F8002461F30E02D3
:101050002F49A1F800240C5440F224412B48FFF7FB
:1010600021FF01280DD12A48B0F8000420F40040E7
:1010700000F500402649A1F800042448FFF792FE3D
:10108000C4B210BD10B540F225512248FFF70AFF47
:10109000D8B12048FFF786FEC4B21F48B0F800045C
:1010A000C0F30E0040F2FF3188420EDA1A49B1F85F
:1010B0000014C1F30E00411C174AB2F8002461F37A
:1010C0000E021549A1F800240C5440F224411148A5
:1010D000FFF7E8FE012817D10F48B0F8000420F40C
:1010E000004000F500400C49A1F800040948FFF752
:1010F00059FEC4B209A1084801F092FC08B10120D0
:1011000000E000200849087010BD000000380140D0
:101110005A0400200048004058000020434C4F5320
:1011200045440D0A0000000048000020F0B50346C9
:101130000D461646002729460A2E03D000200870C7
:101140002846F0BD33B9302001F8010B00200870AB
:101150002846F6E7002B03DA2D2001F8010B5B424D
:1011600042F210720DE093FBF2F404B937B104F1CE
:10117000300001F8010B04FB123301270A2092FB17
:10118000F0F2002AEFDC002008702846D9E70FB4FF
:1011900070B586B006460CA8019073E00B980078F5
:1011A0005C281CD10B98401C0B9000786E2809D04D
:1011B00072280FD10D213046FFF7F0FD0B98401C2F
:1011C0000B900BE00A213046FFF7E8FD0B98401C1E
:1011D0000B9003E00B98401C0B9000BF4BE00B986A
:1011E0000078252840D10B98401C0B90007864288B
:1011F00018D0732833D1019810C801900BE02178E2
:101200003046FFF7CBFD00BF80213046FFF734FEAC
:101210000028F9D0641C20780028F0D10B98401CDD
:101220000B9020E0019820C801900A2202A92846CC
:10123000FFF77CFF02AC0BE021783046FFF7AEFDF4
:1012400000BF80213046FFF717FE0028F9D0641C4C
:1012500020780028F0D10B98401C0B9003E00B98ED
:10126000401C0B9000BF06E00B9810F8011B0B9080
:101270003046FFF793FD00BF80213046FFF7FCFDAD
:101280000028F9D00B980078002887D106B070BCF0
:101290005DF814FB08B54FF4A060FFF755F8252062
:1012A0008DF8000001208DF801008DF802008DF806
:1012B00003006846FFF74DF808BD00B585B0012171
:1012C0000420FFF7CBFB01218803FFF7C7FB4FF496
:1012D0000070ADF8100018208DF8130003208DF871
:1012E000120004A95548FFF7FDF84FF48060ADF8EF
:1012F000100004208DF8130004A95048FFF7F2F8FD
:101300004FF4E13000900020ADF80400ADF8060085
:10131000ADF80800ADF80C000C20ADF80A006946E5
:101320004748FFF742FCFFF7B5FF012240F2255185
:101330004348FFF7D2FC012240F224414048FFF726
:10134000CCFC01213E48FFF7BCFC05B000BD70B5E8
:1013500004460D4629462046FFF720FD00BF8021A8
:101360002046FFF789FD0028F9D070BD2DE9F04136
:1013700007460D461646002405E0295D3846FFF76E
:10138000E6FF601CC4B2B442F7DB00BF4021384620
:10139000FFF772FD0028F9D0BDE8F08170B5064670
:1013A0000C46002500BF615D3046FFF7D0FF6D1C85
:1013B000605D0028F7D100BF40213046FFF75CFD9B
:1013C0000028F9D070BD2DE9F04105460C46260AEB
:1013D000E7B231462846FFF7E1FC00BF80212846EE
:1013E000FFF74AFD0028F9D039462846FFF7D6FC1A
:1013F00000BF80212846FFF73FFD0028F9D0BDE857
:10140000F08170B504460D46E1B20D48FFF7C6FC09
:1014100000BF80210A48FFF72FFD0028F9D02046A1
:1014200070BD10B5044600BF20210548FFF724FD1C
:101430000028F9D00248FFF7B5FC10BD00080140B4
:101440000038014008B501210820FFF707FB2020E4
:10145000ADF8000010208DF8030003208DF8020085
:1014600069461148FFF73EF80120ADF800006946D3
:101470000D48FFF737F80220ADF8000069460A482A
:10148000FFF730F820210848FFF7D9F80121064876
:10149000FFF7D5F802210448FFF7D1F808BD202254
:1014A000014B14331A607047000C01401A48006861
:1014B00040F08070184908600020184948600846CC
:1014C000006840F0010008607047144840687047A9
:1014D00031B5002312480068124DB0FBF5F0009DB5
:1014E00000FB05F400BFFFF7F0FF024611E0FFF735
:1014F000ECFF014691420CD0914202D9881A034474
:1015000003E0C2F1FF30084403440A46A34200D37B
:1015100000E0ECE700BF38BDFCED00E0001000E0AB
:101520000000002040420F0008B54FF4A060FEF715
:101530000BFF27208DF8000000208DF801008DF8AA
:10154000020001208DF803006846FEF702FF08BD87
:1015500000B585B001218804FFF78DFA012108202C
:10156000FFF77CFA4FF48060ADF8100018208DF87A
:10157000130003208DF8120004A9F748FEF7B2FF0C
:101580004FF40060ADF8100004208DF8130004A99A
:10159000F148FEF7A7FF4FF4E13000900020ADF8CE
:1015A0000400ADF80600ADF80800ADF80C000C2002
:1015B000ADF80A006946E948FFF7F7FA012240F260
:1015C0002551E648FFF789FB012240F22441E34818
:1015D000FFF783FBFFF7A8FF0121E048FFF771FB4E
:1015E00005B000BD08B501210820FFF737FA4FF418
:1015F0008070ADF8000010208DF8030003208DF8F6
:1016000002006946D448FEF76DFF01210820FFF76C
:1016100025FA4FF40070ADF800006946CE48FEF799
:1016200061FF08BD10B5FFF7DDFFFFF791FF4FF435
:101630000071C948FFF703F84FF48071C648FFF7FF
:1016400000F810BD10B54FF40071C348FEF7F9FF64
:10165000C348FFF73DFF4FF40071BF48FEF7EFFFAF
:1016600010BD2DE9F04106460C4615461F46BD4803
:10167000B0F800046FF30E00BA49A1F80004324636
:10168000B9A1B648FFF783FD1CB915B90120BDE823
:10169000F0814FF47A7107FB01F0FFF719FF00208A
:1016A000B049B1F80014C1F30E01AE4A50541146CE
:1016B000AFA001F01BFAAB48B0F800046FF30E00C6
:1016C000A849A1F800040846B0F8000420F400403E
:1016D000A1F80004B4B1ADB12146A24801F0A0F9CF
:1016E00008B1012000E0002040B929469D4801F0E2
:1016F00097F908B1012000E0002008B10120C6E7F9
:101700000020C4E744B12146964801F089F908B1A8
:101710000120BCE70020BAE72946924801F080F991
:1017200008B10120B3E70020B1E700B58BB091A16B
:1017300001A801F0EBF94FF4FA73002292A101A87D
:10174000FFF78FFF0BB000BD10B500244FF4007100
:101750008148FEF774FF8DA001F0C8F98F48FFF7AC
:10176000B7FE18E021468EA001F0C0F99248FFF7BD
:10177000AFFE4FF4FA73002283A190A0FFF771FF30
:1017800028B121468EA001F0B1F9012010BDFFF76C
:1017900059FF601CC4B20A2CE4DB0020F6E710B548
:1017A000044624B1012C0AD0022C18D10FE040F6D7
:1017B000C4138AA274A18CA0FFF753FF10BD40F69A
:1017C000C41386A270A18BA0FFF74BFFF6E740F68B
:1017D000C41382A26CA18AA0FFF743FFEEE70020AA
:1017E000ECE730B59FB004460D462B46224687A154
:1017F00001A801F08BF941F28833002262A101A80F
:10180000FFF72FFF1FB030BD70B5A0B004460D46E6
:1018100016462B46224682A102A8009601F076F9D0
:101820004FF47A73002258A102A8FFF71AFF20B0E4
:1018300070BD10B586B004460CB1012000E0002058
:1018400002467DA101A801F061F94FF4FA7300226C
:101850004DA101A8FFF705FF06B010BDF0B5B9B066
:1018600006460F4614461D46642120A801F0CDF817
:1018700016B1012E10D107E03B4673A273A120A838
:10188000009401F043F908E03B4674A26FA120A840
:10189000009401F03BF900E000BF00BF052D06DA1F
:1018A00020AB2A466EA102A801F030F904E020AA7C
:1018B00070A102A801F02AF94FF47A6371A232A153
:1018C00002A8FFF7CEFE39B0F0BD70B5BCB004463B
:1018D0000D461646FCB12B4601226EA11EA801F052
:1018E00015F9324670A1684601F010F94FF4FA7309
:1018F000002225A11EA8FFF7B4FE50B14FF4FA73E1
:10190000002221A16846FFF7ACFE10B101203CB0D7
:1019100070BD0020FBE72B4600225EA11EA801F04F
:10192000F5F84FF4FA73002217A11EA8FFF799FEED
:10193000EDE710B54FF4FA73002213A15EA0FFF794
:1019400090FE30B160A1074801F06AF810B10220A2
:1019500010BDCDE0BEE00000000C0140004800409A
:1019600020A107005800002025730D0A0000000088
:101970002573000041542B4357444843505F43555F
:10198000523D312C310000004F4B00000D0A4154F4
:10199000B2E2CAD42E2E2E2E2E0D0A0080841E00F6
:1019A0000D0A4154B2E2CAD4B4CECAFD2025642E39
:1019B0002E2E2E2E2E0D0A00400D03004154000045
:1019C0000D0A4154B2E2CAD4C6F4B6AFB3C9B9A63F
:1019D0002025642E2E2E2E2E2E0D0A006E6F2063D3
:1019E00068616E676500000041542B43574D4F44BA
:1019F000453D310041542B43574D4F44453D320046
:101A000041542B43574D4F44453D330041542B43E4
:101A1000574A41503D222573222C22257322000073
:101A200041542B43575341503D222573222C2225EC
:101A300073222C312C25640041542B4349504D55C1
:101A4000583D2564000000005443500022257322B5
:101A50002C222573222C25730000000055445000D1
:101A600041542B43495053544152543D25642C2535
:101A70007300000041542B43495053544152543D8C
:101A800025730000414C5245415920434F4E4E456D
:101A90004354000041542B4349505345525645523C
:101AA0003D25642C2573000041542B434950535469
:101AB0004F3D25730000000041542B4349505354BF
:101AC00041545553000000005354415455533A3289
:101AD0000D0A00007CA17F4800F0A2FF08B103209E
:101AE00010BD7DA17B4800F09BFF08B10420F7E703
:101AF0000020F5E710B500244FF4FA730022AFF28E
:101B00007811AFF24C00FFF7ACFD002831D075A181
:101B1000704800F085FF10B144F0010401E024F0AA
:101B2000010474A16B4800F07BFF10B144F0020483
:101B300001E024F0020473A1664800F071FF10B1C7
:101B400044F0040401E024F0040472A1614800F0B0
:101B500067FF10B144F0080401E024F0080471A10B
:101B60005C4800F05DFF10B144F0100401E024F087
:101B70001004204610BD2DE9F04105460F464FF4F4
:101B8000FA730022AFF200216AA0FFF76AFD6CA190
:101B9000504800F045FF06460EB1B61D02E0002099
:101BA000BDE8F081002409E0305D2855285D222839
:101BB00002D10020285503E0601CC4B2BC42F3DB14
:101BC00000BF0120ECE710B54FF4FA730022AFF22A
:101BD00048215DA0FFF745FD08B9002010BD4FF476
:101BE000FA735DA2AFF260215CA0FFF73AFDF5E762
:101BF00010B55D48FFF76CFC5CA15D48FFF7C7FAC4
:101C00005C48FFF765FC10BD2DE9F04186B0074642
:101C10000C4615461E464FF0000847B12246AFF26B
:101C2000B0215348FFF7B3FA4FF001081BE0052E2F
:101C300006DAAB1C324650A101A800F067FF04E0B1
:101C4000AA1C52A101A800F061FF6423002253A145
:101C500001A8FFF706FD4FF4FA73002250A12046B9
:101C6000FFF7FFFC8046404606B0BDE8F08170B546
:101C7000044600251748B0F800046FF30E0015491C
:101C8000A1F800040846B0F8000420F40040A1F8D0
:101C9000000400BF0F48B0F80004C00B0028F9D0C2
:101CA00000200C49B1F80014C1F30E01094A505448
:101CB0000CB1154605E03CA1064800F0B1FE00B1AC
:101CC000044D284670BD00005354415455533A33D7
:101CD0000D0A0000580000205354415455533A3423
:101CE0000D0A00002B4349505354415455533A3088
:101CF0002C0000002B4349505354415455533A3162
:101D00002C0000002B4349505354415455533A3250
:101D10002C0000002B4349505354415455533A333F
:101D20002C0000002B4349505354415455533A342E
:101D30002C00000041542B43494653520000000040
:101D4000415049502C22000041542B4349504D4FE3
:101D500044453D31000000003E00000041542B434B
:101D6000495053454E44000040420F002B2B2B009E
:101D70000048004020A1070041542B4349505345DF
:101D80004E443D25642C25640000000041542B4343
:101D9000495053454E443D25640000003E2000005C
:101DA00053454E44204F4B002B4950440000000047
:101DB0002DE9F043ADF57D7D0746394603A800F0D7
:101DC00041FEC7A103A800F047FE80463BE0414624
:101DD000684600F037FE9DF800404FF000090025EE
:101DE0004FF47A7601200EE01DF80010303901FB27
:101DF0000699011D1DF80110303901FB06550A2115
:101E000096FBF1F6401C0428EEDD612C04D1294636
:101E1000322000F09FFC10E0642C04D129463220CF
:101E200000F0ABFC09E0692C02D100F046FD04E0B3
:101E30002A464946204600F0EEFCA9A1002000F009
:101E40000BFE804600BFB8F1000FC0D10DF57D7DBF
:101E5000BDE8F08370B5054600240DE0A14850F8B8
:101E60002410284600F0DCFD08B1012000E000202D
:101E700000B103E0601CC4B2082CEFDB00BF082CEB
:101E800051D2DFE804F0040D18222B353F47202003
:101E9000954908600120091F08600220086043E09E
:101EA00020209149091F08600120091D08600220B7
:101EB000091F086038E020208B49091F08600120B5
:101EC00008600220091D08602EE020208649086075
:101ED000012008600220091F086025E020208249B7
:101EE00008600120091F08600220091D08601BE02E
:101EF00020207D49091F08600120091D086002207B
:101F0000086011E020207849086001200860022064
:101F1000086009E020207449091F0860012008605A
:101F20000220086000E000BF00BF70BD10B56FA0C8
:101F300000F0DCFD74A000F0D9FD4FF480716A4818
:101F40001438FEF77CFB7648FFF7C2FA00BFFFF7B4
:101F5000FBFB0028FBD000BFFFF7E7FB0028FBD00E
:101F600070A000F0C3FD00BF0020FFF718FC0028A0
:101F7000FAD074A000F0BAFD00BF79A17BA0FFF7F2
:101F800030FC0028F9D07AA000F0B0FD00BF00209E
:101F9000FFF74FFC0028FAD07BA000F0A7FD00BFA0
:101FA000052380A281A10020FFF758FC0028F7D06C
:101FB00082A000F09BFD00BFFFF705FE0028FBD0CC
:101FC00085A000F093FD8AA000F090FD10BD70B5D3
:101FD0008C48B0F800040121B1EBD03F28D1002497
:101FE0000DE08848015D8848FEF7D8FE00BF40211B
:101FF0008548FEF741FF0028F9D0601C84B2814873
:10200000B0F80004C0F30E00A042EADC7D48B0F84E
:1020100000046FF30E007B49A1F800040846B0F8F5
:10202000000420F40040A1F800040846FFF7C0FEB9
:102030007648B0F80004C00B40B300240DE07348AC
:10204000015D7348FEF7AAFE00BF40217048FEF70D
:1020500013FF0028F9D0601C84B26C48B0F800046B
:10206000C0F30E00A042EADC6848B0F800046FF349
:102070000E006649A1F800040846B0F8000420F4F8
:102080000040A1F800040846FFF792FE614800787E
:10209000002824D0FFF7ACFD00BFFFF74AFC05463F
:1020A000002DFAD0042D15D15BA000F01FFD00BF5C
:1020B0002BA12EA0FFF795FB0028F9D000BF052328
:1020C00038A23AA10020FFF7C9FB0028F7D05AA098
:1020D00000F00CFD00BFFFF776FD0028FBD070BDBF
:1020E0002C00000028000020140C01400D0AD5FD32
:1020F000D4DAC5E4D6C32045535038323636202EC4
:102100002E2E2E2E2E0D0A000D0ACAB9C4DC204533
:10211000535038323636202E2E2E2E2E2E0D0A00FB
:10212000400D03000D0AD5FDD4DAC5E4D6C3B9A429
:10213000D7F7C4A3CABD20535441202E2E2E2E2ED5
:102140002E0D0A000D0AD5FDD4DAC1ACBDD320573F
:10215000694669202E2E2E2E2E2E0D0A000000001C
:10216000343332343332343332000000343332000B
:102170000D0ABDFBD6B9B6E0C1ACBDD3202E2E2EC4
:102180002E2E2E0D0A0000000D0AD5FDD4DAC1ACAA
:10219000BDD320536572766572202E2E2E2E2E2EE4
:1021A0000D0A000032303034000000003139322E88
:1021B0003136382E31382E31343400000D0ABDF856
:1021C000C8EBCDB8B4ABB7A2CBCDC4A3CABD202E4B
:1021D0002E2E2E2E2E0D0A000D0AC5E4D6C3204544
:1021E00053503832363620CDEAB1CF0D0A00000008
:1021F0000D0ABFAACABCCDB8B4AB2E2E2E2E2E2EE1
:102200000D0A00005A040020004800405800002039
:1022100000380140480000200D0AD5FDD4DAD6D898
:10222000C1ACC8C8B5E3BACDB7FECEF1C6F7202E13
:102230002E2E2E2E2E0D0A000D0AD6D8C1ACC8C8DF
:10224000B5E3BACDB7FECEF1C6F7B3C9B9A60D0A4C
:102250000000000000B587B001210420FEF7FEFB5E
:1022600001214804FEF707FCFE48FEF75BFC08204E
:10227000ADF8080004208DF80B0002A9FA48FEF71B
:1022800031F90420ADF8080003208DF80A00182069
:102290008DF80B0002A9F448FEF724F94FF4E13061
:1022A00003900020ADF81000ADF81200ADF8140056
:1022B000ADF818000C20ADF8160003A9E948FEF7A8
:1022C00074FC4FF4A060FEF73FF826208DF8040060
:1022D00000208DF805008DF8060001208DF807001C
:1022E00001A8FEF736F8012240F22551DD48FEF73D
:1022F000F4FC0121DB48FEF7E4FC07B000BD00B5AB
:1023000087B001210820FEF7A9FB01218804FEF710
:10231000B2FBD648FEF706FC4FF48060ADF818001B
:1023200018208DF81B0003208DF81A0006A9D0484C
:10233000FEF7D8F84FF40060ADF8180004208DF8CF
:102340001B0006A9CA48FEF7CDF84FF4E130029011
:102350000020ADF80C00ADF80E00ADF81000ADF89F
:1023600014000C20ADF8120027208DF80400012085
:102370008DF8050003208DF8060001208DF8070078
:1023800001A8FDF7E6FF02A9B848FEF70EFC0122FE
:1023900040F22551B548FEF7A0FC0121B348FEF7F5
:1023A00090FC07B000BD00B587B001211020FEF7FA
:1023B00055FB0121C804FEF75EFB4FF48060ADF8C9
:1023C000180018208DF81B0003208DF81A0006A9AC
:1023D000A848FEF787F84FF40060ADF81800042015
:1023E0008DF81B0006A9A348FEF77CF84FF4E130F6
:1023F00002900020ADF80C00ADF80E00ADF8100012
:10240000ADF814000C20ADF8120002A99A48FEF7AE
:10241000CCFB4FF4A060FDF797FF34208DF804004B
:1024200000208DF805008DF8060001208DF80700CA
:1024300001A8FDF78EFF012240F225518E48FEF7DC
:102440004CFC01218C48FEF73CFC07B000BD00B5F8
:1024500087B001213020FEF701FB01210805FEF7BE
:102460000AFB4FF48050ADF8180018208DF81B00BF
:1024700003208DF81A0006A97E48FEF733F80420E1
:10248000ADF818008DF81B0006A97C48FEF72AF865
:102490004FF4E13002900020ADF80C00ADF80E00D2
:1024A000ADF81000ADF814000C20ADF8120002A930
:1024B0007348FEF77AFB4FF4A060FDF745FF352027
:1024C0008DF8040000208DF805008DF8060001202D
:1024D0008DF8070001A8FDF73CFF012240F22551CD
:1024E0006748FEF7FAFB01216548FEF7EAFB07B0F3
:1024F00000BD10B5044621465A48FEF74FFC00BF08
:1025000080215848FEF7B8FC0028F9D010BD10B55E
:10251000044603E014F8010BFFF7EBFF20780028D6
:10252000F8D110BD10B5044621465048FEF736FCE0
:1025300000BF80214D48FEF79FFC0028F9D010BD58
:1025400010B5044603E014F8010BFFF7EBFF207809
:102550000028F8D110BD10B5044621464648FEF7C4
:102560001DFC00BF40214448FEF786FC0028F9D03E
:1025700010BD10B5044603E014F8010BFFF7EBFFA4
:1025800020780028F8D110BD10B5044621463C48FB
:10259000FEF704FC00BF40213948FEF76DFC00281F
:1025A000F9D010BD10B5044603E014F8010BFFF795
:1025B000EBFF20780028F8D110BD10B540F225516E
:1025C0002848FEF76FFC01280BD140F22551254821
:1025D000FEF75FFC2348FEF7E5FBC4B22046FFF799
:1025E00088FF10BD10B540F225512048FEF75AFC77
:1025F00001280BD140F225511C48FEF74AFC1B482C
:10260000FEF7D0FBC4B22046FFF78CFF10BD10B51B
:1026100040F225511848FEF745FC01280BD140F245
:1026200025511548FEF735FC1348FEF7BBFBC4B235
:102630002046FFF790FF10BD10B540F2255110481D
:10264000FEF730FC01280BD140F225510C48FEF773
:1026500020FC0B48FEF7A6FBC4B22046FFF77BFF29
:1026600010BD000000440040000801400048004048
:10267000000C014000100140004C004000140140DB
:102680000050004010B504462046FFF772FF204678
:10269000FFF788FF10BD000070B50446642094FB6E
:1026A000F0F6012503E0642000F07BF96D1CB542D3
:1026B000F9DD70BD2DE9F041ADF5816D04460D46A3
:1026C00016461F46DDF8208404F2DC5440F2DC504C
:1026D000451B06F2DC56C71B23462A4681A102A8E9
:1026E000CDE9006700F012FA02A8FFF75BFF02A82D
:1026F000FFF73FFF4046FFF7CFFF0DF5816DBDE8C7
:10270000F08138B504460D46202086490860012036
:10271000091D08600220091F086023462246214641
:1027200020460095FFF7C6FF38BDF8B504460D46B4
:1027300020207C49091D08600120091F0860022033
:10274000091D086063426242614260420095FFF7E2
:10275000B1FFF8BD38B504460D4620207149086028
:10276000012008600220091D086062426042234681
:1027700021460095FFF79EFF38BD38B504460D464B
:1027800020206849091D0860012008600220091FF7
:10279000086063426142224620460095FFF78AFFA7
:1027A00038BD38B504460D4620205E49086001203A
:1027B00008600220091D08606342604222462146EB
:1027C0000095FFF777FF38BD38B504460D46202049
:1027D0005449091D0860012008600220091F086093
:1027E00062426142234620460095FFF763FF38BDF1
:1027F00038B5044620204B49091D08600120091FF7
:1028000008600220086000231A4619461846009402
:10281000FFF750FF38BD2DE9F04107460E4615463B
:1028200000246C2F26D004DC622F15D0672F41D1F5
:1028300004E0722F2CD0732F3CD137E005E0323406
:1028400064212046FFF771FF643DA642F7DC29466C
:102850003046FFF76AFF2DE005E032346421204660
:10286000FFF74FFF643DA642F7DC29463046FFF7ED
:1028700048FF1FE005E0323464212046FFF791FF56
:10288000643DA642F7DC29463046FFF78AFF11E097
:1028900005E0323464212046FFF796FF643DA642EE
:1028A000F7DC29463046FFF78FFF03E02846FFF7A5
:1028B0009FFF00BF00BFBDE8F08110B5FFF7C7FD67
:1028C000FFF771FD00F030F820201649091D08605F
:1028D00001200860022008604FF47A70FFF7DCFEE8
:1028E00010BD00007B233030365025303464543026
:1028F000303030212330303750253034645430307C
:10290000303021233030385025303464543030306A
:102910003021233030395025303464543030303059
:10292000217D0000100C014010B56FF00400FDF790
:102930005AFD2E4800682E49B0FBF1F02D49087071
:102940000846007800EB4001C1EBC0104FF6FF7164
:1029500001EAC0002849088010BD0146254A1278C6
:102960004A434FF0E0235A6100229A611A461269E5
:1029700042F001021A6100BF4FF0E022106900F03E
:1029800001021AB100F48032002AF5D04FF0E022A3
:10299000126922F001024FF0E0231A6100229A61CD
:1029A00070470146144A12884A434FF0E0235A61A7
:1029B00000229A611A46126942F001021A6100BFB0
:1029C0004FF0E022106900F001021AB100F48032E9
:1029D000002AF5D04FF0E022126922F001024FF0F8
:1029E000E0231A6100229A61704700000000002075
:1029F00000127A004A0000204C000020D2B201E010
:102A000000F8012B491EFBD270470022F6E710B5F3
:102A100013460A4604461946FFF7F0FF204610BD4C
:102A200030B505462A460B4612F8010B13F8014B48
:102A300008B1A042F8D01CB1002802D06D1CF1E70B
:102A4000284630BD034611F8012B00F8012B002A5F
:102A5000F9D118467047000070B50F4D00B92868CD
:102A6000002412E00A4602E09E4203D0521C137872
:102A7000002BF9D1DAB2224305D02BB124B10021C9
:102A800000F8011B04E00446401C0678002EE9D142
:102A90002860204670BD00005000002030B50B4675
:102AA000014600202022012409E021FA02F59D427E
:102AB00005D303FA02F5491B04FA02F52844151E52
:102AC000A2F10102F1DC30BD064C074D06E0E068E2
:102AD00040F0010394E8070098471034AC42F6D365
:102AE000FDF72AFB9C2F0008BC2F00080FB4054BF4
:102AF00010B503A9044A029800F02CF810BC5DF848
:102B000014FB000003140008540000200FB4084B0D
:102B100010B504A902AA039800F01CF8044602A903
:102B2000002000F0B8F9204610BC5DF814FB00004E
:102B3000972E000802E008C8121F08C1002AFAD127
:102B400070477047002001E001C1121F002AFBD12D
:102B5000704700002DE9FF4F8BB0884605460026E0
:102B600006E025280BD0DDE90D1290476D1C761C80
:102B700028780028F5D10FB03046BDE8F08F00244A
:102B8000A146A2460122AE4900E0044315F8013FE8
:102B9000203B02FA03F00842F7D128782A2810D007
:102BA0006FF02F022878A0F13001092915D809EB20
:102BB000890102EB410144F0020400EB01096D1CA4
:102BC000F0E758F8041B5FEA010903D544F4005408
:102BD000C9F1000944F002046D1C28782E2817D191
:102BE00015F8010F44F004042A280ED06FF02F02CC
:102BF0002878A0F1300109290AD80AEB8A0102EBF2
:102C0000410100EB010A6D1CF2E758F804AB6D1CA2
:102C100028786C280FD006DC4C2817D068280DD0F7
:102C20006A2814D104E0742810D07A280FD10DE05E
:102C300044F400140AE044F4801401E044F4401425
:102C40006978814202D104F580146D1C6D1C2878CE
:102C5000692865D006DC00288DD0632827D0642839
:102C600006D15DE06E2808D073282AD0752877D069
:102C7000DDE90D129047761CE0E0C4F30250022813
:102C800009D003280DD0D8F8001004280DD00E600C
:102C900008F10408D2E0D8F80010F217C1E9006288
:102CA000F6E7D8F800100E80F2E70E70F0E718F89B
:102CB000041B8DF8001000208DF80100EB46012068
:102CC00003E058F804BB4FF0FF3061074FF00007F6
:102CD00001D40AE07F1C57450DDA8742FADB1BF866
:102CE00007100029F6D106E07F1C8742FCDB1BF8A9
:102CF00007100029F8D1DDE90D23A9EB0700814673
:102D0000214600F0B1F83044C61904E0DDE90D12A7
:102D10001BF8010B90477F1EF8D22146484688E0F9
:102D200058F8040BC4F302514FF00A0B032900D1E9
:102D300000B2042900D140B2002802DA40422D211D
:102D400002E0210505D52B218DF82410012104E096
:102D500006E0E10710D02021F6E708AF089113E064
:102D600058F8040BC4F302514FF00A0B032900D1A9
:102D700080B2042900D1C0B20021EEE75946FFF726
:102D80008DFE303107F8011D0028F7D1ADEB0700AB
:102D900000F1200B600702D524F4803401E04FF0ED
:102DA000010ADA4502DDAAEB0B0000E000208246B2
:102DB00000EB0B0108980144A9EB01000A90E00325
:102DC00006D4DDE90D2321460A9800F04DF80644AB
:102DD0004FF0000908E009A911F80900DDE90D121A
:102DE000904709F10109761C08998945F3DBE00356
:102DF0000CD5DDE90D2321460A9800F035F806448C
:102E000004E0DDE90D1230209047761CBAF1000194
:102E1000AAF1010AF5DC05E0DDE90D1217F8010B56
:102E20009047761CBBF10001ABF1010BF4DC0A9872
:102E30002146DDE90D2300F005F806446D1C97E6F8
:102E4000092801002DE9F041044600251E461746D9
:102E5000880404D405E039462020B0476D1C641E68
:102E6000F9D52846BDE8F0812DE9F041044600255A
:102E70001E469046C80301D5302700E0202788046D
:102E800004D505E041463846B0476D1C641EF9D5AF
:102E90002846BDE8F0810A68531C0B60107070472B
:102EA0000D0A4C45445F5245440D0A4C45445F476A
:102EB0005245454E0D0A4C45445F424C55450D0A5E
:102EC0004C45445F59454C4C4F570D0A4C45445FA7
:102ED000505552504C450D0A4C45445F4359414EA4
:102EE0000D0A4C45445F57484954450D0A4C45442A
:102EF0005F5247424F46460D0A0000000D0AD4DAE1
:102F0000CDF8C2E7B5F7CAD4D6FACAD6BBF2D5DF38
:102F1000B4AEBFDAB5F7CAD4D6FACAD6C9CFB7A20B
:102F2000CBCDD2D4CFC2C3FCC1EEBFC9D2D4BFD89F
:102F3000D6C6B0E5D4D8524742B5C60D0A00000047
:102F40004C45445F524544004C45445F50555250F7
:102F50004C4500004C45445F57484954450000002B
:102F60004C45445F424C5545000000004C45445FD1
:102F70005247424F464600004C45445F4359414E3C
:102F8000000000004C45445F475245454E0000009C
:102F90004C45445F59454C4C4F570000BC2F00082E
:102FA0000000002058000000342B000814300008F6
:102FB00058000020080C0000442B000800A24A041E
:102FC00000000000000000000102030406070809D9
:102FD00000000000010203040102030406070809BF
:102FE00002040608402F0008842F0008602F000804
:102FF000902F0008482F0008782F0008542F000851
:103000006C2F00080000000000000000000000001D
:0430100000000000BC
:0400000508000131BD
:00000001FF
